{
  "contractName": "Owned",
  "abi": [
    {
      "inputs": [],
      "stateMutability": "nonpayable",
      "type": "constructor"
    },
    {
      "inputs": [],
      "name": "owner",
      "outputs": [
        {
          "internalType": "address",
          "name": "",
          "type": "address"
        }
      ],
      "stateMutability": "view",
      "type": "function"
    }
  ],
  "bytecode": "0x6080604052348015600f57600080fd5b50600080546001600160a01b031916331790556091806100306000396000f3fe6080604052348015600f57600080fd5b506004361060285760003560e01c80638da5cb5b14602d575b600080fd5b600054603f906001600160a01b031681565b6040516001600160a01b03909116815260200160405180910390f3fea26469706673582212202fab45c1c481cb204f310a214d07f307d3a7d31e4a1d68b8fe3e528e3982109c64736f6c634300080b0033",
  "immutableReferences": {},
  "source": "// SPDX-License-Identifier: MIT\r\npragma solidity >=0.4.22 <0.9.0;\r\n\r\ncontract Owned {\r\n  address public owner;\r\n\r\n  constructor() {\r\n    owner = msg.sender;\r\n  }\r\n\r\n  modifier onlyOwner {\r\n    require(\r\n      msg.sender == owner,\r\n      \"Only owner can call this function\"\r\n    );\r\n    _;\r\n  }\r\n}",
  "sourcePath": "C:\\Users\\Lish\\Documents\\GitHub\\TwoPlayersChess\\blockchain\\contracts\\Owned.sol",
  "compiler": {
    "name": "solc",
    "version": "0.8.11+commit.d7f03943.Emscripten.clang"
  },
  "schemaVersion": "3.4.5",
  "updatedAt": "2022-10-06T13:43:17.702Z",
  "devdoc": {
    "kind": "dev",
    "methods": {},
    "version": 1
  },
  "userdoc": {
    "kind": "user",
    "methods": {},
    "version": 1
  }
}