{
  "contractName": "Tournament",
  "abi": [
    {
      "anonymous": false,
      "inputs": [
        {
          "indexed": true,
          "internalType": "string",
          "name": "tournament",
          "type": "string"
        }
      ],
      "name": "addedTournament",
      "type": "event"
    },
    {
      "inputs": [
        {
          "internalType": "string",
          "name": "",
          "type": "string"
        }
      ],
      "name": "isTournament",
      "outputs": [
        {
          "internalType": "bool",
          "name": "",
          "type": "bool"
        }
      ],
      "stateMutability": "view",
      "type": "function",
      "constant": true
    },
    {
      "inputs": [
        {
          "internalType": "string",
          "name": "",
          "type": "string"
        },
        {
          "internalType": "address",
          "name": "",
          "type": "address"
        }
      ],
      "name": "isTournamentPlayer",
      "outputs": [
        {
          "internalType": "bool",
          "name": "",
          "type": "bool"
        }
      ],
      "stateMutability": "view",
      "type": "function",
      "constant": true
    },
    {
      "inputs": [],
      "name": "owner",
      "outputs": [
        {
          "internalType": "address",
          "name": "",
          "type": "address"
        }
      ],
      "stateMutability": "view",
      "type": "function",
      "constant": true
    },
    {
      "inputs": [
        {
          "internalType": "string",
          "name": "",
          "type": "string"
        }
      ],
      "name": "remainingSlots",
      "outputs": [
        {
          "internalType": "uint256",
          "name": "",
          "type": "uint256"
        }
      ],
      "stateMutability": "view",
      "type": "function",
      "constant": true
    },
    {
      "inputs": [
        {
          "internalType": "string",
          "name": "",
          "type": "string"
        }
      ],
      "name": "tournaments",
      "outputs": [
        {
          "internalType": "address",
          "name": "winner",
          "type": "address"
        },
        {
          "internalType": "uint256",
          "name": "stake",
          "type": "uint256"
        },
        {
          "internalType": "uint256",
          "name": "balance",
          "type": "uint256"
        },
        {
          "internalType": "uint256",
          "name": "createdAt",
          "type": "uint256"
        },
        {
          "internalType": "uint256",
          "name": "duration",
          "type": "uint256"
        }
      ],
      "stateMutability": "view",
      "type": "function",
      "constant": true
    },
    {
      "inputs": [
        {
          "internalType": "string",
          "name": "tournament",
          "type": "string"
        },
        {
          "internalType": "uint256",
          "name": "stake",
          "type": "uint256"
        },
        {
          "internalType": "uint256",
          "name": "duration",
          "type": "uint256"
        },
        {
          "internalType": "uint256",
          "name": "numberOfPlayers",
          "type": "uint256"
        }
      ],
      "name": "addTournament",
      "outputs": [
        {
          "internalType": "bool",
          "name": "",
          "type": "bool"
        }
      ],
      "stateMutability": "nonpayable",
      "type": "function"
    },
    {
      "inputs": [
        {
          "internalType": "string",
          "name": "tournament",
          "type": "string"
        }
      ],
      "name": "joinTournament",
      "outputs": [
        {
          "internalType": "bool",
          "name": "",
          "type": "bool"
        }
      ],
      "stateMutability": "payable",
      "type": "function",
      "payable": true
    },
    {
      "inputs": [
        {
          "internalType": "string",
          "name": "tournament",
          "type": "string"
        },
        {
          "internalType": "address",
          "name": "winner",
          "type": "address"
        }
      ],
      "name": "setWinner",
      "outputs": [],
      "stateMutability": "nonpayable",
      "type": "function"
    },
    {
      "inputs": [
        {
          "internalType": "string",
          "name": "tournament",
          "type": "string"
        }
      ],
      "name": "withdrawStake",
      "outputs": [
        {
          "internalType": "bool",
          "name": "",
          "type": "bool"
        }
      ],
      "stateMutability": "nonpayable",
      "type": "function"
    },
    {
      "inputs": [
        {
          "internalType": "string",
          "name": "tournament",
          "type": "string"
        }
      ],
      "name": "withdrawPrize",
      "outputs": [
        {
          "internalType": "bool",
          "name": "",
          "type": "bool"
        }
      ],
      "stateMutability": "nonpayable",
      "type": "function"
    }
  ],
  "bytecode": "0x608060405234801561001057600080fd5b50600080546001600160a01b03191633179055610df3806100326000396000f3fe6080604052600436106100915760003560e01c80638da5cb5b116100595780638da5cb5b146102045780639dd9de591461023c578063c865f9da14610282578063ea514146146102a2578063f2b5c5a8146102c457600080fd5b80632c9c21521461009657806339709538146100e65780636ab5bddc14610131578063791c294c146101c45780637c1967c7146101e4575b600080fd5b3480156100a257600080fd5b506100d16100b1366004610b06565b805160208183018101805160018252928201919093012091525460ff1681565b60405190151581526020015b60405180910390f35b3480156100f257600080fd5b506100d1610101366004610b5f565b81516020818401810180516002825292820194820194909420919093529091526000908152604090205460ff1681565b34801561013d57600080fd5b5061019261014c366004610b06565b805160208183018101805160038083529383019290940191909120929052815460018301546002840154928401546004909401546001600160a01b039092169390929185565b604080516001600160a01b0390961686526020860194909452928401919091526060830152608082015260a0016100dd565b3480156101d057600080fd5b506100d16101df366004610bf6565b6102d7565b3480156101f057600080fd5b506100d16101ff366004610c50565b610442565b34801561021057600080fd5b50600054610224906001600160a01b031681565b6040516001600160a01b0390911681526020016100dd565b34801561024857600080fd5b50610274610257366004610b06565b805160208183018101805160048252928201919093012091525481565b6040519081526020016100dd565b34801561028e57600080fd5b506100d161029d366004610c50565b610686565b3480156102ae57600080fd5b506102c26102bd366004610c92565b610787565b005b6100d16102d2366004610c50565b6107f8565b600080546001600160a01b0316331461030b5760405162461bcd60e51b815260040161030290610ce6565b60405180910390fd5b6040805160a081018252600080825260208201879052818301524260608201526080810185905290518190600390610346908a908a90610d27565b9081526040805160209281900383018120845181546001600160a01b0319166001600160a01b0390911617815592840151600180850191909155918401516002840155606084015160038401556080909301516004909201919091559081906103b2908a908a90610d27565b908152604051908190036020018120805492151560ff199093169290921790915583906004906103e5908a908a90610d27565b908152604051908190036020018120919091556104059088908890610d27565b604051908190038120907f83702902b119f1a8a4acadb5b053f39371a07982bc17cf51b88546ce27d3a5e390600090a25060019695505050505050565b6000828260028282604051610458929190610d27565b9081526040805160209281900383019020336000908152925290205460ff1680156104b6575060006001600160a01b03166003838360405161049b929190610d27565b908152604051908190036020019020546001600160a01b0316145b80156105125750600382826040516104cf929190610d27565b908152602001604051809103902060040154600383836040516104f3929190610d27565b90815260200160405180910390206003015461050f9190610d4d565b42115b6105575760405162461bcd60e51b815260206004820152601660248201527543616e206e6f74207769746864726177207374616b6560501b6044820152606401610302565b6000600a6003878760405161056d929190610d27565b9081526020016040518091039020600101546105899190610d65565b610594906009610d87565b90506000600387876040516105aa929190610d27565b90815260200160405180910390206002015490508181101561061c5760405162461bcd60e51b815260206004820152602560248201527f4e6f7420656e6f7567682066756e647320696e20746f75726e616d656e742077604482015264185b1b195d60da1b6064820152608401610302565b6106268282610da6565b60038888604051610638929190610d27565b90815260405190819003602001812060020191909155339083156108fc029084906000818181858888f19350505050158015610678573d6000803e3d6000fd5b506001979650505050505050565b600082826003828260405161069c929190610d27565b90815260405190819003602001902054336001600160a01b03909116146106fe5760405162461bcd60e51b81526020600482015260166024820152752cb7ba9030b932903737ba103a3432903bb4b73732b960511b6044820152606401610302565b600060038686604051610712929190610d27565b908152602001604051809103902060020154905060006003878760405161073a929190610d27565b90815260405190819003602001812060020191909155339082156108fc029083906000818181858888f1935050505015801561077a573d6000803e3d6000fd5b5060019695505050505050565b6000546001600160a01b031633146107b15760405162461bcd60e51b815260040161030290610ce6565b80600384846040516107c4929190610d27565b90815260405190819003602001902080546001600160a01b03929092166001600160a01b0319909216919091179055505050565b600082826003828260405161080e929190610d27565b908152602001604051809103902060010154341015801561085057506001828260405161083c929190610d27565b9081526040519081900360200190205460ff165b801561088a575060028282604051610869929190610d27565b9081526040805160209281900383019020336000908152925290205460ff16155b6108d65760405162461bcd60e51b815260206004820152601760248201527f43616e206e6f74206a6f696e20746f75726e616d656e740000000000000000006044820152606401610302565b6000600486866040516108ea929190610d27565b90815260200160405180910390205490506000811161094b5760405162461bcd60e51b815260206004820152601f60248201527f546f75726e616d656e742068617320636f6d706c65746520706c6179657273006044820152606401610302565b610956600182610da6565b60048787604051610968929190610d27565b90815260200160405180910390208190555060016002878760405161098e929190610d27565b908152604080516020928190038301902033600090815292529020805460ff19169115159190911790556109c3600a34610d65565b6109ce906009610d87565b600387876040516109e0929190610d27565b9081526020016040518091039020600201546109fc9190610d4d565b60038787604051610a0e929190610d27565b908152604051908190036020019020600201556000546001600160a01b03166108fc610a3b600a34610d65565b6040518115909202916000818181858888f1935050505015801561077a573d6000803e3d6000fd5b634e487b7160e01b600052604160045260246000fd5b600082601f830112610a8a57600080fd5b813567ffffffffffffffff80821115610aa557610aa5610a63565b604051601f8301601f19908116603f01168101908282118183101715610acd57610acd610a63565b81604052838152866020858801011115610ae657600080fd5b836020870160208301376000602085830101528094505050505092915050565b600060208284031215610b1857600080fd5b813567ffffffffffffffff811115610b2f57600080fd5b610b3b84828501610a79565b949350505050565b80356001600160a01b0381168114610b5a57600080fd5b919050565b60008060408385031215610b7257600080fd5b823567ffffffffffffffff811115610b8957600080fd5b610b9585828601610a79565b925050610ba460208401610b43565b90509250929050565b60008083601f840112610bbf57600080fd5b50813567ffffffffffffffff811115610bd757600080fd5b602083019150836020828501011115610bef57600080fd5b9250929050565b600080600080600060808688031215610c0e57600080fd5b853567ffffffffffffffff811115610c2557600080fd5b610c3188828901610bad565b9099909850602088013597604081013597506060013595509350505050565b60008060208385031215610c6357600080fd5b823567ffffffffffffffff811115610c7a57600080fd5b610c8685828601610bad565b90969095509350505050565b600080600060408486031215610ca757600080fd5b833567ffffffffffffffff811115610cbe57600080fd5b610cca86828701610bad565b9094509250610cdd905060208501610b43565b90509250925092565b60208082526021908201527f4f6e6c79206f776e65722063616e2063616c6c20746869732066756e6374696f6040820152603760f91b606082015260800190565b8183823760009101908152919050565b634e487b7160e01b600052601160045260246000fd5b60008219821115610d6057610d60610d37565b500190565b600082610d8257634e487b7160e01b600052601260045260246000fd5b500490565b6000816000190483118215151615610da157610da1610d37565b500290565b600082821015610db857610db8610d37565b50039056fea2646970667358221220eb10f7cbf7dda5d22b6a9e90b2b605292afe978667d121cbe8f060b89565b90664736f6c634300080b0033",
  "immutableReferences": {},
  "source": "// SPDX-License-Identifier: MIT\r\npragma solidity >=0.4.22 <0.9.0;\r\nimport \"./Owned.sol\";\r\n\r\ncontract Tournament is Owned{\r\n\r\n    struct tournamentData {\r\n        address winner;\r\n        uint stake;\r\n        uint balance;\r\n        uint createdAt;\r\n        uint duration;\r\n    }\r\n\r\n    mapping(string => bool) public isTournament;\r\n    mapping(string => mapping(address => bool)) public isTournamentPlayer;\r\n    mapping(string => tournamentData) public tournaments;\r\n    mapping(string => uint) public remainingSlots;\r\n\r\n    event addedTournament(string indexed tournament);\r\n\r\n    modifier onlyWinner(string calldata tournament) {\r\n        require(\r\n            msg.sender == tournaments[tournament].winner,\r\n            'You are not the winner'\r\n        );\r\n        _;\r\n    }\r\n\r\n    modifier timeElapsed(string calldata tournament) {\r\n        require(\r\n            isTournamentPlayer[tournament][msg.sender]\r\n            && tournaments[tournament].winner == address(0)\r\n            && block.timestamp > tournaments[tournament].createdAt + tournaments[tournament].duration,\r\n            'Can not withdraw stake'\r\n        );\r\n        _;\r\n    }\r\n\r\n    modifier canJoin(string calldata tournament) {\r\n        require(\r\n            msg.value >= tournaments[tournament].stake\r\n            && isTournament[tournament]\r\n            && !isTournamentPlayer[tournament][msg.sender],\r\n            'Can not join tournament'\r\n        );\r\n        _;\r\n    }\r\n\r\n    function addTournament(string calldata tournament, uint stake, uint duration, uint numberOfPlayers) external onlyOwner returns(bool){\r\n        tournamentData memory newTournament = tournamentData({\r\n            winner: address(0),\r\n            stake: stake,\r\n            balance: 0,\r\n            createdAt: block.timestamp,\r\n            duration: duration\r\n        });\r\n        tournaments[tournament] = newTournament;\r\n        isTournament[tournament] = true;\r\n        remainingSlots[tournament] = numberOfPlayers;\r\n\r\n        emit addedTournament(tournament);\r\n        return true;\r\n    }\r\n\r\n    function joinTournament(string calldata tournament) external payable canJoin(tournament) returns(bool) {\r\n        uint slots = remainingSlots[tournament];\r\n        require(slots > 0, 'Tournament has complete players');\r\n        remainingSlots[tournament] = slots - 1;\r\n        isTournamentPlayer[tournament][msg.sender] = true;\r\n        tournaments[tournament].balance = tournaments[tournament].balance + (msg.value/10 * 9);\r\n        payable(Owned.owner).transfer(msg.value/10);\r\n\r\n        return true;\r\n    }\r\n\r\n    function setWinner(string calldata tournament, address winner) external onlyOwner {\r\n        tournaments[tournament].winner = winner;\r\n    }\r\n\r\n    function withdrawStake(string calldata tournament) external timeElapsed(tournament) returns(bool) {\r\n        uint stake = (tournaments[tournament].stake/10 * 9);\r\n        uint balance = tournaments[tournament].balance;\r\n        require(balance >= stake, 'Not enough funds in tournament wallet');\r\n        tournaments[tournament].balance = balance - stake;\r\n        payable(msg.sender).transfer(stake);\r\n        return true;\r\n    }\r\n\r\n    function withdrawPrize(string calldata tournament) external onlyWinner(tournament) returns(bool) {\r\n        uint balance = tournaments[tournament].balance;\r\n        tournaments[tournament].balance = 0;\r\n        payable(msg.sender).transfer(balance);\r\n        return true;\r\n    }\r\n    \r\n}",
  "sourcePath": "C:\\Users\\Lish\\Documents\\GitHub\\TwoPlayersChess\\blockchain\\contracts\\Tournament.sol",
  "compiler": {
    "name": "solc",
    "version": "0.8.11+commit.d7f03943.Emscripten.clang"
  },
  "schemaVersion": "3.4.5",
  "updatedAt": "2022-10-06T13:47:18.399Z",
  "networkType": "ethereum",
  "devdoc": {
    "kind": "dev",
    "methods": {},
    "version": 1
  },
  "userdoc": {
    "kind": "user",
    "methods": {},
    "version": 1
  }
}